{
  "contractName": "TrafficLogger",
  "abi": [
    {
      "inputs": [
        {
          "internalType": "uint256",
          "name": "",
          "type": "uint256"
        }
      ],
      "name": "trafficLogs",
      "outputs": [
        {
          "internalType": "string",
          "name": "userID",
          "type": "string"
        },
        {
          "internalType": "string",
          "name": "role",
          "type": "string"
        },
        {
          "internalType": "string",
          "name": "filePath",
          "type": "string"
        },
        {
          "internalType": "uint256",
          "name": "behaviorProbability",
          "type": "uint256"
        },
        {
          "internalType": "bool",
          "name": "accessGranted",
          "type": "bool"
        }
      ],
      "stateMutability": "view",
      "type": "function"
    },
    {
      "inputs": [
        {
          "internalType": "string",
          "name": "_userID",
          "type": "string"
        },
        {
          "internalType": "string",
          "name": "_role",
          "type": "string"
        },
        {
          "internalType": "string",
          "name": "_filePath",
          "type": "string"
        },
        {
          "internalType": "uint256",
          "name": "_behaviorProbability",
          "type": "uint256"
        },
        {
          "internalType": "bool",
          "name": "_accessGranted",
          "type": "bool"
        }
      ],
      "name": "logTrafficData",
      "outputs": [],
      "stateMutability": "nonpayable",
      "type": "function"
    },
    {
      "inputs": [
        {
          "internalType": "uint256",
          "name": "index",
          "type": "uint256"
        }
      ],
      "name": "getTrafficData",
      "outputs": [
        {
          "internalType": "string",
          "name": "",
          "type": "string"
        },
        {
          "internalType": "string",
          "name": "",
          "type": "string"
        },
        {
          "internalType": "string",
          "name": "",
          "type": "string"
        },
        {
          "internalType": "uint256",
          "name": "",
          "type": "uint256"
        },
        {
          "internalType": "bool",
          "name": "",
          "type": "bool"
        }
      ],
      "stateMutability": "view",
      "type": "function"
    },
    {
      "inputs": [],
      "name": "trafficLogsLength",
      "outputs": [
        {
          "internalType": "uint256",
          "name": "",
          "type": "uint256"
        }
      ],
      "stateMutability": "view",
      "type": "function"
    }
  ],
  "bytecode": "0x608060405234801561000f575f80fd5b50610d6f8061001d5f395ff3fe608060405234801561000f575f80fd5b506004361061004a575f3560e01c80632424e1141461004e5780634689820a1461006a578063595ee054146100885780639286d7ef146100bc575b5f80fd5b610068600480360381019061006391906107ce565b6100f0565b005b6100726101b7565b60405161007f91906108a8565b60405180910390f35b6100a2600480360381019061009d91906108c1565b6101c2565b6040516100b3959493929190610975565b60405180910390f35b6100d660048036038101906100d191906108c1565b6103a0565b6040516100e7959493929190610975565b60405180910390f35b5f6040518060a0016040528087815260200186815260200185815260200184815260200183151581525090505f81908060018154018082558091505060019003905f5260205f2090600502015f909190919091505f820151815f0190816101579190610bd5565b50602082015181600101908161016d9190610bd5565b5060408201518160020190816101839190610bd5565b50606082015181600301556080820151816004015f6101000a81548160ff0219169083151502179055505050505050505050565b5f8080549050905090565b5f81815481106101d0575f80fd5b905f5260205f2090600502015f91509050805f0180546101ef90610a08565b80601f016020809104026020016040519081016040528092919081815260200182805461021b90610a08565b80156102665780601f1061023d57610100808354040283529160200191610266565b820191905f5260205f20905b81548152906001019060200180831161024957829003601f168201915b50505050509080600101805461027b90610a08565b80601f01602080910402602001604051908101604052809291908181526020018280546102a790610a08565b80156102f25780601f106102c9576101008083540402835291602001916102f2565b820191905f5260205f20905b8154815290600101906020018083116102d557829003601f168201915b50505050509080600201805461030790610a08565b80601f016020809104026020016040519081016040528092919081815260200182805461033390610a08565b801561037e5780601f106103555761010080835404028352916020019161037e565b820191905f5260205f20905b81548152906001019060200180831161036157829003601f168201915b505050505090806003015490806004015f9054906101000a900460ff16905085565b60608060605f805f8054905086106103ed576040517f08c379a00000000000000000000000000000000000000000000000000000000081526004016103e490610cee565b60405180910390fd5b5f80878154811061040157610400610d0c565b5b905f5260205f2090600502016040518060a00160405290815f8201805461042790610a08565b80601f016020809104026020016040519081016040528092919081815260200182805461045390610a08565b801561049e5780601f106104755761010080835404028352916020019161049e565b820191905f5260205f20905b81548152906001019060200180831161048157829003601f168201915b505050505081526020016001820180546104b790610a08565b80601f01602080910402602001604051908101604052809291908181526020018280546104e390610a08565b801561052e5780601f106105055761010080835404028352916020019161052e565b820191905f5260205f20905b81548152906001019060200180831161051157829003601f168201915b5050505050815260200160028201805461054790610a08565b80601f016020809104026020016040519081016040528092919081815260200182805461057390610a08565b80156105be5780601f10610595576101008083540402835291602001916105be565b820191905f5260205f20905b8154815290600101906020018083116105a157829003601f168201915b5050505050815260200160038201548152602001600482015f9054906101000a900460ff1615151515815250509050805f01518160200151826040015183606001518460800151955095509550955095505091939590929450565b5f604051905090565b5f80fd5b5f80fd5b5f80fd5b5f80fd5b5f601f19601f8301169050919050565b7f4e487b71000000000000000000000000000000000000000000000000000000005f52604160045260245ffd5b61067882610632565b810181811067ffffffffffffffff8211171561069757610696610642565b5b80604052505050565b5f6106a9610619565b90506106b5828261066f565b919050565b5f67ffffffffffffffff8211156106d4576106d3610642565b5b6106dd82610632565b9050602081019050919050565b828183375f83830152505050565b5f61070a610705846106ba565b6106a0565b9050828152602081018484840111156107265761072561062e565b5b6107318482856106ea565b509392505050565b5f82601f83011261074d5761074c61062a565b5b813561075d8482602086016106f8565b91505092915050565b5f819050919050565b61077881610766565b8114610782575f80fd5b50565b5f813590506107938161076f565b92915050565b5f8115159050919050565b6107ad81610799565b81146107b7575f80fd5b50565b5f813590506107c8816107a4565b92915050565b5f805f805f60a086880312156107e7576107e6610622565b5b5f86013567ffffffffffffffff81111561080457610803610626565b5b61081088828901610739565b955050602086013567ffffffffffffffff81111561083157610830610626565b5b61083d88828901610739565b945050604086013567ffffffffffffffff81111561085e5761085d610626565b5b61086a88828901610739565b935050606061087b88828901610785565b925050608061088c888289016107ba565b9150509295509295909350565b6108a281610766565b82525050565b5f6020820190506108bb5f830184610899565b92915050565b5f602082840312156108d6576108d5610622565b5b5f6108e384828501610785565b91505092915050565b5f81519050919050565b5f82825260208201905092915050565b5f5b83811015610923578082015181840152602081019050610908565b5f8484015250505050565b5f610938826108ec565b61094281856108f6565b9350610952818560208601610906565b61095b81610632565b840191505092915050565b61096f81610799565b82525050565b5f60a0820190508181035f83015261098d818861092e565b905081810360208301526109a1818761092e565b905081810360408301526109b5818661092e565b90506109c46060830185610899565b6109d16080830184610966565b9695505050505050565b7f4e487b71000000000000000000000000000000000000000000000000000000005f52602260045260245ffd5b5f6002820490506001821680610a1f57607f821691505b602082108103610a3257610a316109db565b5b50919050565b5f819050815f5260205f209050919050565b5f6020601f8301049050919050565b5f82821b905092915050565b5f60088302610a947fffffffffffffffffffffffffffffffffffffffffffffffffffffffffffffffff82610a59565b610a9e8683610a59565b95508019841693508086168417925050509392505050565b5f819050919050565b5f610ad9610ad4610acf84610766565b610ab6565b610766565b9050919050565b5f819050919050565b610af283610abf565b610b06610afe82610ae0565b848454610a65565b825550505050565b5f90565b610b1a610b0e565b610b25818484610ae9565b505050565b5b81811015610b4857610b3d5f82610b12565b600181019050610b2b565b5050565b601f821115610b8d57610b5e81610a38565b610b6784610a4a565b81016020851015610b76578190505b610b8a610b8285610a4a565b830182610b2a565b50505b505050565b5f82821c905092915050565b5f610bad5f1984600802610b92565b1980831691505092915050565b5f610bc58383610b9e565b9150826002028217905092915050565b610bde826108ec565b67ffffffffffffffff811115610bf757610bf6610642565b5b610c018254610a08565b610c0c828285610b4c565b5f60209050601f831160018114610c3d575f8415610c2b578287015190505b610c358582610bba565b865550610c9c565b601f198416610c4b86610a38565b5f5b82811015610c7257848901518255600182019150602085019450602081019050610c4d565b86831015610c8f5784890151610c8b601f891682610b9e565b8355505b6001600288020188555050505b505050505050565b7f496e646578206f7574206f6620626f756e6473000000000000000000000000005f82015250565b5f610cd86013836108f6565b9150610ce382610ca4565b602082019050919050565b5f6020820190508181035f830152610d0581610ccc565b9050919050565b7f4e487b71000000000000000000000000000000000000000000000000000000005f52603260045260245ffdfea2646970667358221220aede6800ce9987efc1654259cfd49dc6a178bccd679e2b8384ca7faeb394892664736f6c63430008150033",
  "immutableReferences": {},
  "source": "// SPDX-License-Identifier: MIT\npragma solidity ^0.8.0;\n\ncontract TrafficLogger {\n    struct TrafficData {\n        string userID;\n        string role;\n        string filePath;\n        uint256 behaviorProbability; // Store as a scaled integer (e.g., 15 for 0.15)\n        bool accessGranted;\n    }\n\n    TrafficData[] public trafficLogs;\n\n    // Log traffic data\n    function logTrafficData(\n        string memory _userID,\n        string memory _role,\n        string memory _filePath,\n        uint256 _behaviorProbability, // Pass as an integer scaled by 100 (e.g., 15 for 0.15)\n        bool _accessGranted\n    ) public {\n        TrafficData memory newLog = TrafficData({\n            userID: _userID,\n            role: _role,\n            filePath: _filePath,\n            behaviorProbability: _behaviorProbability,\n            accessGranted: _accessGranted\n        });\n        trafficLogs.push(newLog);\n    }\n\n    // Retrieve a specific traffic log\n    function getTrafficData(uint256 index)\n        public\n        view\n        returns (\n            string memory,\n            string memory,\n            string memory,\n            uint256,\n            bool\n        )\n    {\n        require(index < trafficLogs.length, \"Index out of bounds\");\n        TrafficData memory log = trafficLogs[index];\n        return (\n            log.userID,\n            log.role,\n            log.filePath,\n            log.behaviorProbability,\n            log.accessGranted\n        );\n    }\n\n    // Get the total number of logs\n    function trafficLogsLength() public view returns (uint256) {\n        return trafficLogs.length;\n    }\n}\n\n",
  "sourcePath": "/home/subramanian/Downloads/Industriai-hackothon-IITM/blockchain/contracts/TrafficLogger.sol",
  "compiler": {
    "name": "solc",
    "version": "0.8.21+commit.d9974bed.Emscripten.clang"
  },
  "schemaVersion": "3.4.16",
  "updatedAt": "2025-01-05T22:28:28.436Z",
  "devdoc": {
    "kind": "dev",
    "methods": {},
    "version": 1
  },
  "userdoc": {
    "kind": "user",
    "methods": {},
    "version": 1
  }
}